{
  "contractName": "Blood",
  "abi": [
    {
      "constant": true,
      "inputs": [
        {
          "name": "",
          "type": "uint256"
        }
      ],
      "name": "donations",
      "outputs": [
        {
          "name": "id",
          "type": "uint256"
        },
        {
          "name": "quantity",
          "type": "string"
        },
        {
          "name": "person",
          "type": "string"
        }
      ],
      "payable": false,
      "stateMutability": "view",
      "type": "function"
    },
    {
      "inputs": [],
      "payable": false,
      "stateMutability": "nonpayable",
      "type": "constructor"
    },
    {
      "constant": false,
      "inputs": [
        {
          "name": "_quantity",
          "type": "string"
        },
        {
          "name": "_person",
          "type": "string"
        }
      ],
      "name": "createDonation",
      "outputs": [],
      "payable": false,
      "stateMutability": "nonpayable",
      "type": "function"
    }
  ],
  "bytecode": "0x60806040526000805534801561001457600080fd5b506100986040805190810160405280600281526020017f32300000000000000000000000000000000000000000000000000000000000008152506040805190810160405280600f81526020017f4265726e6172646f20426f72676573000000000000000000000000000000000081525061009d640100000000026401000000009004565b6101a8565b60008054600190810180835560408051606081018252828152602080820188815282840188905293865284815291909420845181559151805192936100ea9390850192919091019061010d565b506040820151805161010691600284019160209091019061010d565b5050505050565b828054600181600116156101000203166002900490600052602060002090601f016020900481019282601f1061014e57805160ff191683800117855561017b565b8280016001018555821561017b579182015b8281111561017b578251825591602001919060010190610160565b5061018792915061018b565b5090565b6101a591905b808211156101875760008155600101610191565b90565b61050a806101b76000396000f3fe60806040526004361061004b5763ffffffff7c0100000000000000000000000000000000000000000000000000000000600035041663559402f38114610050578063f8626af81461018c575b600080fd5b34801561005c57600080fd5b5061018a6004803603604081101561007357600080fd5b81019060208101813564010000000081111561008e57600080fd5b8201836020820111156100a057600080fd5b803590602001918460018302840111640100000000831117156100c257600080fd5b91908080601f016020809104026020016040519081016040528093929190818152602001838380828437600092019190915250929594936020810193503591505064010000000081111561011557600080fd5b82018360208201111561012757600080fd5b8035906020019184600183028401116401000000008311171561014957600080fd5b91908080601f01602080910402602001604051908101604052809392919081815260200183838082843760009201919091525092955061029b945050505050565b005b34801561019857600080fd5b506101b6600480360360208110156101af57600080fd5b503561030b565b604051808481526020018060200180602001838103835285818151815260200191508051906020019080838360005b838110156101fd5781810151838201526020016101e5565b50505050905090810190601f16801561022a5780820380516001836020036101000a031916815260200191505b50838103825284518152845160209182019186019080838360005b8381101561025d578181015183820152602001610245565b50505050905090810190601f16801561028a5780820380516001836020036101000a031916815260200191505b509550505050505060405180910390f35b60008054600190810180835560408051606081018252828152602080820188815282840188905293865284815291909420845181559151805192936102e893908501929190910190610443565b5060408201518051610304916002840191602090910190610443565b5050505050565b600160208181526000928352604092839020805481840180548651600296821615610100026000190190911695909504601f810185900485028601850190965285855290949193929091908301828280156103a75780601f1061037c576101008083540402835291602001916103a7565b820191906000526020600020905b81548152906001019060200180831161038a57829003601f168201915b50505060028085018054604080516020601f60001961010060018716150201909416959095049283018590048502810185019091528181529596959450909250908301828280156104395780601f1061040e57610100808354040283529160200191610439565b820191906000526020600020905b81548152906001019060200180831161041c57829003601f168201915b5050505050905083565b828054600181600116156101000203166002900490600052602060002090601f016020900481019282601f1061048457805160ff19168380011785556104b1565b828001600101855582156104b1579182015b828111156104b1578251825591602001919060010190610496565b506104bd9291506104c1565b5090565b6104db91905b808211156104bd57600081556001016104c7565b9056fea165627a7a723058200d3ed2f48a5eadb95002c46381e16344c99a8885b3a55dbd202f46ac19d28ac10029",
  "source": "pragma solidity ^0.5.0;\n\ncontract Blood {\n    uint BloodCount=0;\n\n    struct BloodDonation{\n        uint id;\n        string quantity;\n        string person;\n    }\n\n    constructor() public {\n        createDonation(\"20\",'Bernardo Borges');\n    }\n\n    mapping(uint => BloodDonation) public donations;\n\n    function createDonation(string memory _quantity,string memory _person) public {\n        BloodCount ++;\n        donations[BloodCount] = BloodDonation(BloodCount, _quantity, _person);\n    }\n\n\n}\n",
  "sourcePath": "/home/kishido/Desktop/eth-blood-bank/contracts/BloodDonation.sol",
  "compiler": {
    "name": "solc",
    "version": "0.5.0+commit.1d4f565a.Emscripten.clang"
  },
  "schemaVersion": "3.0.1",
  "updatedAt": "2019-08-21T22:12:15.632Z",
  "devdoc": {
    "methods": {}
  },
  "userdoc": {
    "methods": {}
  }
}