{
  "contractName": "BloodDonation",
  "abi": [
    {
      "constant": true,
      "inputs": [
        {
          "name": "",
          "type": "uint256"
        }
      ],
      "name": "donations",
      "outputs": [
        {
          "name": "id",
          "type": "uint256"
        },
        {
          "name": "quantity",
          "type": "string"
        },
        {
          "name": "person",
          "type": "string"
        },
        {
          "name": "bloodType",
          "type": "string"
        },
        {
          "name": "dateTime",
          "type": "string"
        }
      ],
      "payable": false,
      "stateMutability": "view",
      "type": "function"
    },
    {
      "constant": true,
      "inputs": [],
      "name": "BloodCount",
      "outputs": [
        {
          "name": "",
          "type": "uint256"
        }
      ],
      "payable": false,
      "stateMutability": "view",
      "type": "function"
    },
    {
      "inputs": [],
      "payable": false,
      "stateMutability": "nonpayable",
      "type": "constructor"
    },
    {
      "constant": false,
      "inputs": [
        {
          "name": "_quantity",
          "type": "string"
        },
        {
          "name": "_person",
          "type": "string"
        },
        {
          "name": "_bloodType",
          "type": "string"
        },
        {
          "name": "_dateTime",
          "type": "string"
        }
      ],
      "name": "createDonation",
      "outputs": [],
      "payable": false,
      "stateMutability": "nonpayable",
      "type": "function"
    }
  ],
  "bytecode": "0x60806040526000805534801561001457600080fd5b50610884806100246000396000f3fe6080604052600436106100565763ffffffff7c0100000000000000000000000000000000000000000000000000000000600035041663bf53e436811461005b578063f8626af8146102a5578063ff4d180814610480575b600080fd5b34801561006757600080fd5b506102a36004803603608081101561007e57600080fd5b81019060208101813564010000000081111561009957600080fd5b8201836020820111156100ab57600080fd5b803590602001918460018302840111640100000000831117156100cd57600080fd5b91908080601f016020809104026020016040519081016040528093929190818152602001838380828437600092019190915250929594936020810193503591505064010000000081111561012057600080fd5b82018360208201111561013257600080fd5b8035906020019184600183028401116401000000008311171561015457600080fd5b91908080601f01602080910402602001604051908101604052809392919081815260200183838082843760009201919091525092959493602081019350359150506401000000008111156101a757600080fd5b8201836020820111156101b957600080fd5b803590602001918460018302840111640100000000831117156101db57600080fd5b91908080601f016020809104026020016040519081016040528093929190818152602001838380828437600092019190915250929594936020810193503591505064010000000081111561022e57600080fd5b82018360208201111561024057600080fd5b8035906020019184600183028401116401000000008311171561026257600080fd5b91908080601f0160208091040260200160405190810160405280939291908181526020018383808284376000920191909152509295506104a7945050505050565b005b3480156102b157600080fd5b506102cf600480360360208110156102c857600080fd5b503561055f565b6040518086815260200180602001806020018060200180602001858103855289818151815260200191508051906020019080838360005b8381101561031e578181015183820152602001610306565b50505050905090810190601f16801561034b5780820380516001836020036101000a031916815260200191505b5085810384528851815288516020918201918a019080838360005b8381101561037e578181015183820152602001610366565b50505050905090810190601f1680156103ab5780820380516001836020036101000a031916815260200191505b50858103835287518152875160209182019189019080838360005b838110156103de5781810151838201526020016103c6565b50505050905090810190601f16801561040b5780820380516001836020036101000a031916815260200191505b50858103825286518152865160209182019188019080838360005b8381101561043e578181015183820152602001610426565b50505050905090810190601f16801561046b5780820380516001836020036101000a031916815260200191505b50995050505050505050505060405180910390f35b34801561048c57600080fd5b506104956107b7565b60408051918252519081900360200190f35b6000805460019081018083556040805160a08101825282815260208082018a81528284018a905260608301899052608083018890529386528481529190942084518155915180519293610502939085019291909101906107bd565b506040820151805161051e9160028401916020909101906107bd565b506060820151805161053a9160038401916020909101906107bd565b50608082015180516105569160048401916020909101906107bd565b50505050505050565b600160208181526000928352604092839020805481840180548651600296821615610100026000190190911695909504601f810185900485028601850190965285855290949193929091908301828280156105fb5780601f106105d0576101008083540402835291602001916105fb565b820191906000526020600020905b8154815290600101906020018083116105de57829003601f168201915b50505060028085018054604080516020601f600019610100600187161502019094169590950492830185900485028101850190915281815295969594509092509083018282801561068d5780601f106106625761010080835404028352916020019161068d565b820191906000526020600020905b81548152906001019060200180831161067057829003601f168201915b5050505060038301805460408051602060026001851615610100026000190190941693909304601f810184900484028201840190925281815294959493509083018282801561071d5780601f106106f25761010080835404028352916020019161071d565b820191906000526020600020905b81548152906001019060200180831161070057829003601f168201915b5050505060048301805460408051602060026001851615610100026000190190941693909304601f81018490048402820184019092528181529495949350908301828280156107ad5780601f10610782576101008083540402835291602001916107ad565b820191906000526020600020905b81548152906001019060200180831161079057829003601f168201915b5050505050905085565b60005481565b828054600181600116156101000203166002900490600052602060002090601f016020900481019282601f106107fe57805160ff191683800117855561082b565b8280016001018555821561082b579182015b8281111561082b578251825591602001919060010190610810565b5061083792915061083b565b5090565b61085591905b808211156108375760008155600101610841565b9056fea165627a7a723058209a5d65325da407ad3527f6a4f14bbfc7138a12ee8d9657ce3532899cd0879d490029",
  "source": "pragma solidity ^0.5.0;\n\ncontract BloodDonation {\n    uint public BloodCount=0;\n\n    struct Donation{\n        uint id;\n        string quantity;\n        string person;\n        string bloodType;\n        string dateTime;\n    }\n\n    constructor() public {\n\n\n    }\n\n    mapping(uint => Donation) public donations;\n\n    function createDonation(string memory _quantity,string memory _person,string memory _bloodType,string memory _dateTime) public {\n        BloodCount ++;\n        donations[BloodCount] = Donation(BloodCount, _quantity, _person,_bloodType,_dateTime);\n    }\n\n\n}\n",
  "sourcePath": "/home/kishido/Documents/eth-blood-bank/contracts/BloodDonation.sol",
  "compiler": {
    "name": "solc",
    "version": "0.5.0+commit.1d4f565a.Emscripten.clang"
  },
  "schemaVersion": "3.0.1",
  "updatedAt": "2019-09-12T20:19:40.734Z",
  "devdoc": {
    "methods": {}
  },
  "userdoc": {
    "methods": {}
  }
}